:100000000C9434000C943E000C943E000C943E0082
:100010000C943E000C943E000C943E000C943E0068
:100020000C943E000C943E000C943E000C943E0058
:100030000C943E000C943E000C943E000C943E0048
:100040000C943E000C943E000C943E000C943E0038
:100050000C943E000C943E000C943E000C943E0028
:100060000C943E000C943E0011241FBECFEFD8E04C
:10007000DEBFCDBF0E944A010C945E010C940000CB
:100080005A98529A81E594E00197F1F700C0000078
:1000900052985A9894EA9A95F1F700C04A9907C085
:1000A0004A9BFECF8BE78A95F1F781E0089580E0C7
:1000B00008955A98529A8FE08A95F1F752985A9873
:1000C0008DE98A95F1F7000008955A98529A83E9CC
:1000D0008A95F1F700C052985A9888E18A95F1F70D
:1000E00000C00895CF93DF93C82FD8E0C0FF08C0A9
:1000F0000E945900C695D150C9F7DF91CF9108955C
:100100000E946500F7CF0E944000882331F08CECFC
:100110000E94720084E40C94720008955A98529AD6
:100120008FE08A95F1F752985A9896E19A95F1F7EF
:10013000000089B197E89A95F1F7000082FB8827C3
:1001400080F908951F93CF93DF93D8E011E0C0E0CA
:100150000E948E008111C12B110FD150C9F78C2F35
:10016000DF91CF911F910895EF92FF920F931F930C
:10017000CF93DF93CDB7DEB729970FB6F894DEBFE4
:100180000FBECDBF52985A982FEF8FE392E02150C7
:1001900080409040E1F700C000004A990EC080E026
:1001A00029960FB6F894DEBF0FBECDBFDF91CF9179
:1001B0001F910F91FF90EF9008950E9440008823B7
:1001C00071F38CEC0E9472008EEB0E9472008E0123
:1001D0000F5F1F4F7E01EAE0EE0EF11C0E94A200AD
:1001E000F80181938F01EE15FF05C1F70E944000D1
:1001F0008823A9F28CEC0E9472008EE40E947200A7
:100200008B810E9472008C810E9472008FE70E9495
:100210007200F6EFFA95F1F70E944000882309F486
:10022000BECF8CEC0E94720088E40E9472008FEFB7
:100230009FE80197F1F700C0000081E0B1CFCF93B4
:10024000DF93EC010E948E00882301F10E944000A0
:100250008823D1F08CEC0E9472008EEB0E94720019
:100260000E94A20088830E94A20089830E94A200AB
:100270000E94A2000E94A2000E94A2000E94A2006E
:100280000E94A2000E94A20081E001C080E0DF91F4
:10029000CF910895389A409A88EE93E0E3E3F7E02F
:1002A0003197F1F70197D1F7409888EE93E0E3E3B7
:1002B000F7E03197F1F70197D1F7EDCFF894FFCF41
:00000001FF
