:100000000C9434000C9449000C9449000C94490061
:100010000C9449000C9449000C9449000C9449003C
:100020000C9449000C9449000C9449000C9449002C
:100030000C9449000C9449000C9449000C9449001C
:100040000C9449000C9449000C9449000C9449000C
:100050000C9449000C9449000C9449000C944900FC
:100060000C9449000C94490011241FBECFEFD8E036
:10007000DEBFCDBF11E0A0E0B1E0E6EAF6E002C0ED
:1000800005900D92A630B107D9F70E949F010C94FC
:1000900051030C9400009091C00095FFFCCF809319
:1000A000C6000895CF93DF93EC018991811103C0BD
:1000B000DF91CF9108950E944B00F7CF9C01CB01B7
:1000C000409A2150310920F44098019730F4089566
:1000D000E3E3F7E03197F1F7F4CFE3E3F7E03197AB
:1000E000F1F7F3CFCF93DF93C82FD0E0811108C091
:1000F00060E971E08CEB92E0DF91CF910C945E00AF
:1001000068EC70E088EC90E00E945E00DF5FCD1349
:10011000F7CF2FEF8FEF98E0215080409040E1F72C
:1001200000C00000DF91CF9108955A98529A81E55E
:1001300094E00197F1F700C0000052985A9894EAB1
:100140009A95F1F700C04A9907C04A9BFECF8BE70A
:100150008A95F1F781E0089580E008955A98529ABF
:100160008FE08A95F1F752985A988DE98A95F1F7C0
:10017000000008955A98529A83E98A95F1F700C0D1
:1001800052985A9888E18A95F1F700C00895CF9364
:10019000DF93C82FD8E0C0FF08C00E94AE00C6950C
:1001A000D150C9F7DF91CF9108950E94BA00F7CFDF
:1001B0000E949500882331F08CEC0E94C70084E4F3
:1001C0000C94C70008955A98529A8FE08A95F1F7D7
:1001D00052985A9896E19A95F1F7000089B197E8FC
:1001E0009A95F1F7000082FB882780F908951F9304
:1001F000CF93DF93D8E011E0C0E00E94E3008111CB
:10020000C12B110FD150C9F78C2FDF91CF911F91C6
:100210000895EF92FF920F931F93CF93DF93CDB783
:10022000DEB729970FB6F894DEBF0FBECDBF529848
:100230005A982FEF8FE392E0215080409040E1F7F1
:1002400000C000004A990EC080E029960FB6F894CD
:10025000DEBF0FBECDBFDF91CF911F910F91FF90F9
:10026000EF9008950E949500882371F38CEC0E9412
:10027000C7008EEB0E94C7008E010F5F1F4F7E01EB
:10028000EAE0EE0EF11C0E94F700F80181938F0165
:10029000EE15FF05C1F70E9495008823A9F28CECAA
:1002A0000E94C7008EE40E94C7008B810E94C70095
:1002B0008C810E94C7008FE70E94C700F6EFFA9575
:1002C000F1F70E949500882309F4BECF8CEC0E94C0
:1002D000C70088E40E94C7008FEF9FE80197F1F7FD
:1002E00000C0000081E0B1CFCF93DF93EC010E940A
:1002F000E300882301F10E9495008823D1F08CEC63
:100300000E94C7008EEB0E94C7000E94F7008883FE
:100310000E94F70089830E94F7000E94F7000E9464
:10032000F7000E94F7000E94F7000E94F7000E9469
:10033000F70081E001C080E0DF91CF910895CDB753
:10034000DEB72A970FB6F894DEBF0FBECDBF389A3E
:1003500040981092C5008FE28093C4001092C000B4
:1003600088E08093C10086E08093C2000E9409016A
:10037000811104C080E091E00E94520080E5482E87
:10038000512C612C712C9AE0892E912CA12CB12C2E
:1003900024E6C22ED12C3AE0E32EF12C0E94D800A4
:1003A00000E213E0CE0101960E947401882309F453
:1003B000C2C0A981BA812AE530E00E9419039B01DD
:1003C000AC01285D3F4F4F4F5F4F97FF06C09B0129
:1003D000AC0128523109410951092F8338874987D7
:1003E0005A876F81788589859A85A30192010E9439
:1003F000FA0289019A01005C1E4F2F4F3F4F0115F1
:1004000040E81407210531050CF0BDC0011550E886
:1004100015075FEF250735070CF4B8C0C801012E9A
:10042000000CAA0BBB0B8F839887A987BA8717FF8D
:1004300012C08DE20E944B002F81388549855A8574
:1004400050954095309521953F4F4F4F5F4F2F83EB
:10045000388749875A876F81788589859A85A5016C
:1004600094010E94FA02FE013196312C21153105CA
:1004700009F08FC080E30E944B008EE20E944B0087
:100480006F81788589859A85A50194010E94FA0279
:1004900080E3860F0E944B0083E091E00E945200AF
:1004A00068E770E080E590E00E945E006CE271E039
:1004B00080E590E00E945E0017FF09C060E971E0EE
:1004C00080E991E00E945E00119501951109C80133
:1004D000B6010E94E602CB01B7010E94E6020E942B
:1004E00072008FEF9FEBAFE081509040A040E1F7AA
:1004F00000C00000C801B7010E94E602182FCB011E
:10050000B7010E94E6020E947200BFEF2FEB3FE0AE
:10051000B15020403040E1F700C00000812F0E9420
:1005200072004FEF5FEF8AE1415050408040E1F7A9
:1005300000C000001EC083E397E00197F1F701506F
:10054000110909F02FCF80E091E00E94520068EC81
:1005500070E084EF91E00E945E0068EC70E084EF50
:1005600091E00E945E0060E273E084EF91E00E94FF
:100570005E009FEFAFE7B6E19150A040B040E1F7D9
:1005800000C000000BCF0FEF1FE748CF00E010E8DE
:1005900045CF3394C901B7010E94E602805D819383
:1005A000C9019B010A9718F046E03412F2CF3A9441
:1005B0005FEF351609F461CFE1E0F0E0EC0FFD1FCD
:1005C000E30DF11D80810E944B00F1CFAA1BBB1BE4
:1005D00051E107C0AA1FBB1FA617B70710F0A61B43
:1005E000B70B881F991F5A95A9F780959095BC0164
:1005F000CD010895052E97FB1EF400940E9411036F
:1006000057FD07D00E94200307FC03D04EF40C9442
:10061000110350954095309521953F4F4F4F5F4FB7
:10062000089590958095709561957F4F8F4F9F4F5E
:1006300008950E944203B7FF0895821B930B08950B
:10064000A1E21A2EAA1BBB1BFD010DC0AA1FBB1FD6
:10065000EE1FFF1FA217B307E407F50720F0A21B48
:10066000B30BE40BF50B661F771F881F991F1A94B5
:1006700069F760957095809590959B01AC01BD01DF
:10068000CF010895A29FB001B39FC001A39F700D39
:10069000811D1124911DB29F700D811D1124911D8A
:0606A0000895F894FFCF5D
:0606A6004552520D0A004E
:00000001FF
