:100000000C9434000C9449000C9449000C94490061
:100010000C9449000C9449000C9449000C9449003C
:100020000C9449000C9449000C9449000C9449002C
:100030000C9449000C9449000C9449000C9449001C
:100040000C9449000C9449000C9449000C9449000C
:100050000C9449000C9449000C9449000C944900FC
:100060000C9449000C94490011241FBECFEFD8E036
:10007000DEBFCDBF11E0A0E0B1E0E6EEF6E002C0E9
:1000800005900D92AE30B107D9F70E94B4010C94DF
:1000900071030C940000CF93DF93EC0189918111DF
:1000A00003C0DF91CF9108950E94A601F7CF9C0174
:1000B000CB01409A2150310920F44098019730F447
:1000C0000895E3E3F7E03197F1F7F4CFE3E3F7E0E6
:1000D0003197F1F7F3CFCF93DF93C82FD0E08111A1
:1000E00008C060E971E08CEB92E0DF91CF910C9455
:1000F000570068EC70E088EC90E00E945700DF5FEA
:10010000CD13F7CF2FEF8FEF98E021508040904034
:10011000E1F700C00000DF91CF9108955A98529AFC
:1001200081E594E00197F1F700C0000052985A98D9
:1001300094EA9A95F1F700C04A9907C04A9BFECF0E
:100140008BE78A95F1F781E0089580E008955A9849
:10015000529A8FE08A95F1F752985A988DE98A95CC
:10016000F1F7000008955A98529A83E98A95F1F7B9
:1001700000C052985A9888E18A95F1F700C0089516
:10018000CF93DF93C82FD8E0C0FF08C00E94A7001C
:10019000C695D150C9F7DF91CF9108950E94B30061
:1001A000F7CF0E948E00882331F08CEC0E94C000B3
:1001B00084E40C94C00008955A98529A8FE08A956E
:1001C000F1F752985A9896E19A95F1F7000089B1A3
:1001D00097E89A95F1F7000082FB882780F9089547
:1001E0001F93CF93DF93D8E011E0C0E00E94DC00C2
:1001F0008111C12B110FD150C9F78C2FDF91CF91F5
:100200001F910895EF92FF920F931F93CF93DF9367
:10021000CDB7DEB729970FB6F894DEBF0FBECDBFBE
:1002200052985A982FEF8FE392E0215080409040EF
:10023000E1F700C000004A990EC080E029960FB691
:10024000F894DEBF0FBECDBFDF91CF911F910F910C
:10025000FF90EF9008950E948E00882371F38CEC3C
:100260000E94C0008EEB0E94C0008E010F5F1F4FE6
:100270007E01EAE0EE0EF11C0E94F000F80181938D
:100280008F01EE15FF05C1F70E948E008823A9F2A9
:100290008CEC0E94C0008EE40E94C0008B810E9402
:1002A000C0008C810E94C0008FE70E94C000F6EF62
:1002B000FA95F1F70E948E00882309F4BECF8CECEA
:1002C0000E94C00088E40E94C0008FEF9FE8019761
:1002D000F1F700C0000081E0B1CFCF93DF93EC01D4
:1002E0000E94DC00882301F10E948E008823D1F057
:1002F0008CEC0E94C0008EEB0E94C0000E94F000B7
:1003000088830E94F00089830E94F0000E94F00020
:100310000E94F0000E94F0000E94F0000E94F00095
:100320000E94F00081E001C080E0DF91CF9108954C
:100330001092C5008FE28093C4001092C00088E143
:100340008093C10086E08093C20008959091C00020
:1003500095FFFCCF8093C60008958091C00087FF71
:10036000FCCF8091C6000895CDB7DEB72A970FB6AF
:10037000F894DEBF0FBECDBF389A40980E94980116
:1003800080E091E00E944B0008EC10E081E40E94C4
:10039000A6018FEF93E20197F1F700C00000015032
:1003A0001109A1F78AE091E00E944B000E9402012E
:1003B000811104C087E091E00E944B0080E5482E47
:1003C000512C612C712C9AE0892E912CA12CB12CEE
:1003D00024E6C22ED12C3AE0E32EF12C0E94D1006B
:1003E00000E213E0CE0101960E946D01882309F41A
:1003F000C2C0A981BA812AE530E00E9439039B017D
:10040000AC01285D3F4F4F4F5F4F97FF06C09B01E8
:10041000AC0128523109410951092F833887498796
:100420005A876F81788589859A85A30192010E94F8
:100430001A0389019A01005C1E4F2F4F3F4F01158F
:1004400040E81407210531050CF0BDC0011550E846
:1004500015075FEF250735070CF4B8C0C801012E5A
:10046000000CAA0BBB0B8F839887A987BA8717FF4D
:1004700012C08DE20E94A6012F81388549855A85D8
:1004800050954095309521953F4F4F4F5F4F2F83AB
:10049000388749875A876F81788589859A85A5012C
:1004A00094010E941A03FE013196312C2115310569
:1004B00009F08FC080E30E94A6018EE20E94A6018F
:1004C0006F81788589859A85A50194010E941A0318
:1004D00080E3860F0E94A6018AE091E00E944B0013
:1004E00068E770E080E590E00E9457006CE271E000
:1004F00080E590E00E94570017FF09C060E971E0B5
:1005000080E991E00E945700119501951109C801F9
:10051000B6010E940603CB01B7010E9406030E94A8
:100520006B008FEF9FEBAFE081509040A040E1F770
:1005300000C00000C801B7010E940603182FCB01BC
:10054000B7010E9406030E946B00BFEF2FEB3FE054
:10055000B15020403040E1F700C00000812F0E94E0
:100560006B004FEF5FEF8AE1415050408040E1F770
:1005700000C000001EC0A3E3B7E01197F1F70150DF
:10058000110909F02FCF87E091E00E944B0068EC41
:1005900070E084EF91E00E94570068EC70E084EF17
:1005A00091E00E94570060E273E084EF91E00E94C6
:1005B00057009FEFAFE7B6E19150A040B040E1F7A0
:1005C00000C000000BCF0FEF1FE748CF00E010E89E
:1005D00045CF3394C901B7010E940603805D819322
:1005E000C9019B010A9718F046E03412F2CF3A9401
:1005F0005FEF351609F461CFE1E0F0E0EC0FFD1F8D
:10060000E30DF11D80810E94A601F1CFAA1BBB1B47
:1006100051E107C0AA1FBB1FA617B70710F0A61B02
:10062000B70B881F991F5A95A9F780959095BC0123
:10063000CD010895052E97FB1EF400940E9431030E
:1006400057FD07D00E94400307FC03D04EF40C94E2
:10065000310350954095309521953F4F4F4F5F4F57
:10066000089590958095709561957F4F8F4F9F4F1E
:1006700008950E946203B7FF0895821B930B0895AB
:10068000A1E21A2EAA1BBB1BFD010DC0AA1FBB1F96
:10069000EE1FFF1FA217B307E407F50720F0A21B08
:1006A000B30BE40BF50B661F771F881F991F1A9475
:1006B00069F760957095809590959B01AC01BD019F
:1006C000CF010895A29FB001B39FC001A39F700DF9
:1006D000811D1124911DB29F700D811D1124911D4A
:0606E0000895F894FFCF1D
:0E06E600424F4F540D0A004552520D0A0000BB
:00000001FF
